{"abi":[{"type":"constructor","inputs":[{"name":"_centralBank","type":"address","internalType":"address"}],"stateMutability":"nonpayable"},{"type":"function","name":"_totalSupply","inputs":[],"outputs":[{"name":"","type":"uint256","internalType":"uint256"}],"stateMutability":"view"},{"type":"function","name":"allowance","inputs":[{"name":"owner","type":"address","internalType":"address"},{"name":"spender","type":"address","internalType":"address"}],"outputs":[{"name":"","type":"uint256","internalType":"uint256"}],"stateMutability":"view"},{"type":"function","name":"approve","inputs":[{"name":"spender","type":"address","internalType":"address"},{"name":"value","type":"uint256","internalType":"uint256"}],"outputs":[{"name":"","type":"bool","internalType":"bool"}],"stateMutability":"nonpayable"},{"type":"function","name":"balanceOf","inputs":[{"name":"account","type":"address","internalType":"address"}],"outputs":[{"name":"","type":"uint256","internalType":"uint256"}],"stateMutability":"view"},{"type":"function","name":"decimals","inputs":[],"outputs":[{"name":"","type":"uint8","internalType":"uint8"}],"stateMutability":"view"},{"type":"function","name":"mint","inputs":[{"name":"_amount","type":"uint256","internalType":"uint256"},{"name":"_to","type":"address","internalType":"address"}],"outputs":[],"stateMutability":"nonpayable"},{"type":"function","name":"name","inputs":[],"outputs":[{"name":"","type":"string","internalType":"string"}],"stateMutability":"view"},{"type":"function","name":"owner","inputs":[],"outputs":[{"name":"","type":"address","internalType":"address"}],"stateMutability":"view"},{"type":"function","name":"renounceOwnership","inputs":[],"outputs":[],"stateMutability":"nonpayable"},{"type":"function","name":"symbol","inputs":[],"outputs":[{"name":"","type":"string","internalType":"string"}],"stateMutability":"view"},{"type":"function","name":"totalSupply","inputs":[],"outputs":[{"name":"","type":"uint256","internalType":"uint256"}],"stateMutability":"view"},{"type":"function","name":"transfer","inputs":[{"name":"to","type":"address","internalType":"address"},{"name":"value","type":"uint256","internalType":"uint256"}],"outputs":[{"name":"","type":"bool","internalType":"bool"}],"stateMutability":"nonpayable"},{"type":"function","name":"transferFrom","inputs":[{"name":"from","type":"address","internalType":"address"},{"name":"to","type":"address","internalType":"address"},{"name":"value","type":"uint256","internalType":"uint256"}],"outputs":[{"name":"","type":"bool","internalType":"bool"}],"stateMutability":"nonpayable"},{"type":"function","name":"transferOwnership","inputs":[{"name":"newOwner","type":"address","internalType":"address"}],"outputs":[],"stateMutability":"nonpayable"},{"type":"event","name":"Approval","inputs":[{"name":"owner","type":"address","indexed":true,"internalType":"address"},{"name":"spender","type":"address","indexed":true,"internalType":"address"},{"name":"value","type":"uint256","indexed":false,"internalType":"uint256"}],"anonymous":false},{"type":"event","name":"OwnershipTransferred","inputs":[{"name":"previousOwner","type":"address","indexed":true,"internalType":"address"},{"name":"newOwner","type":"address","indexed":true,"internalType":"address"}],"anonymous":false},{"type":"event","name":"Transfer","inputs":[{"name":"from","type":"address","indexed":true,"internalType":"address"},{"name":"to","type":"address","indexed":true,"internalType":"address"},{"name":"value","type":"uint256","indexed":false,"internalType":"uint256"}],"anonymous":false},{"type":"error","name":"ERC20InsufficientAllowance","inputs":[{"name":"spender","type":"address","internalType":"address"},{"name":"allowance","type":"uint256","internalType":"uint256"},{"name":"needed","type":"uint256","internalType":"uint256"}]},{"type":"error","name":"ERC20InsufficientBalance","inputs":[{"name":"sender","type":"address","internalType":"address"},{"name":"balance","type":"uint256","internalType":"uint256"},{"name":"needed","type":"uint256","internalType":"uint256"}]},{"type":"error","name":"ERC20InvalidApprover","inputs":[{"name":"approver","type":"address","internalType":"address"}]},{"type":"error","name":"ERC20InvalidReceiver","inputs":[{"name":"receiver","type":"address","internalType":"address"}]},{"type":"error","name":"ERC20InvalidSender","inputs":[{"name":"sender","type":"address","internalType":"address"}]},{"type":"error","name":"ERC20InvalidSpender","inputs":[{"name":"spender","type":"address","internalType":"address"}]},{"type":"error","name":"OwnableInvalidOwner","inputs":[{"name":"owner","type":"address","internalType":"address"}]},{"type":"error","name":"OwnableUnauthorizedAccount","inputs":[{"name":"account","type":"address","internalType":"address"}]},{"type":"error","name":"ZeroAmountNotAccepted","inputs":[]}],"bytecode":{"object":"0x608060405234801561000f575f5ffd5b506040516119f23803806119f2833981810160405281019061003191906102c8565b60075f9054906101000a900473ffffffffffffffffffffffffffffffffffffffff166040518060400160405280600d81526020017f4e6174696f6e616c546f6b656e000000000000000000000000000000000000008152506040518060400160405280600381526020017f4e4154000000000000000000000000000000000000000000000000000000000081525081600390816100ce9190610541565b5080600490816100de9190610541565b5050505f73ffffffffffffffffffffffffffffffffffffffff168173ffffffffffffffffffffffffffffffffffffffff1603610151575f6040517f1e4fbdf7000000000000000000000000000000000000000000000000000000008152600401610148919061061f565b60405180910390fd5b610160816101a760201b60201c565b508060075f6101000a81548173ffffffffffffffffffffffffffffffffffffffff021916908373ffffffffffffffffffffffffffffffffffffffff16021790555050610638565b5f60055f9054906101000a900473ffffffffffffffffffffffffffffffffffffffff1690508160055f6101000a81548173ffffffffffffffffffffffffffffffffffffffff021916908373ffffffffffffffffffffffffffffffffffffffff1602179055508173ffffffffffffffffffffffffffffffffffffffff168173ffffffffffffffffffffffffffffffffffffffff167f8be0079c531659141344cd1fd0a4f28419497f9722a3daafe3b4186f6b6457e060405160405180910390a35050565b5f5ffd5b5f73ffffffffffffffffffffffffffffffffffffffff82169050919050565b5f6102978261026e565b9050919050565b6102a78161028d565b81146102b1575f5ffd5b50565b5f815190506102c28161029e565b92915050565b5f602082840312156102dd576102dc61026a565b5b5f6102ea848285016102b4565b91505092915050565b5f81519050919050565b7f4e487b71000000000000000000000000000000000000000000000000000000005f52604160045260245ffd5b7f4e487b71000000000000000000000000000000000000000000000000000000005f52602260045260245ffd5b5f600282049050600182168061036e57607f821691505b6020821081036103815761038061032a565b5b50919050565b5f819050815f5260205f209050919050565b5f6020601f8301049050919050565b5f82821b905092915050565b5f600883026103e37fffffffffffffffffffffffffffffffffffffffffffffffffffffffffffffffff826103a8565b6103ed86836103a8565b95508019841693508086168417925050509392505050565b5f819050919050565b5f819050919050565b5f61043161042c61042784610405565b61040e565b610405565b9050919050565b5f819050919050565b61044a83610417565b61045e61045682610438565b8484546103b4565b825550505050565b5f5f905090565b610475610466565b610480818484610441565b505050565b5f5b828110156104a65761049b5f82840161046d565b600181019050610487565b505050565b601f8211156104f957828211156104f8576104c581610387565b6104ce83610399565b6104d785610399565b60208610156104e4575f90505b8083016104f382840382610485565b505050505b5b505050565b5f82821c905092915050565b5f6105195f19846008026104fe565b1980831691505092915050565b5f610531838361050a565b9150826002028217905092915050565b61054a826102f3565b67ffffffffffffffff811115610563576105626102fd565b5b61056d8254610357565b6105788282856104ab565b5f60209050601f8311600181146105a9575f8415610597578287015190505b6105a18582610526565b865550610608565b601f1984166105b786610387565b5f5b828110156105de578489015182556001820191506020850194506020810190506105b9565b868310156105fb57848901516105f7601f89168261050a565b8355505b6001600288020188555050505b505050505050565b6106198161028d565b82525050565b5f6020820190506106325f830184610610565b92915050565b6113ad806106455f395ff3fe608060405234801561000f575f5ffd5b50600436106100e8575f3560e01c8063715018a61161008a57806395d89b411161006457806395d89b4114610238578063a9059cbb14610256578063dd62ed3e14610286578063f2fde38b146102b6576100e8565b8063715018a6146101f45780638da5cb5b146101fe57806394bf804d1461021c576100e8565b806323b872dd116100c657806323b872dd14610158578063313ce567146101885780633eaaf86b146101a657806370a08231146101c4576100e8565b806306fdde03146100ec578063095ea7b31461010a57806318160ddd1461013a575b5f5ffd5b6100f46102d2565b6040516101019190610e2e565b60405180910390f35b610124600480360381019061011f9190610edf565b610362565b6040516101319190610f37565b60405180910390f35b610142610384565b60405161014f9190610f5f565b60405180910390f35b610172600480360381019061016d9190610f78565b61038d565b60405161017f9190610f37565b60405180910390f35b6101906103bb565b60405161019d9190610fe3565b60405180910390f35b6101ae6103c3565b6040516101bb9190610f5f565b60405180910390f35b6101de60048036038101906101d99190610ffc565b6103c9565b6040516101eb9190610f5f565b60405180910390f35b6101fc61040e565b005b610206610421565b6040516102139190611036565b60405180910390f35b6102366004803603810190610231919061104f565b610449565b005b6102406104b9565b60405161024d9190610e2e565b60405180910390f35b610270600480360381019061026b9190610edf565b610549565b60405161027d9190610f37565b60405180910390f35b6102a0600480360381019061029b919061108d565b61056b565b6040516102ad9190610f5f565b60405180910390f35b6102d060048036038101906102cb9190610ffc565b6105ed565b005b6060600380546102e1906110f8565b80601f016020809104026020016040519081016040528092919081815260200182805461030d906110f8565b80156103585780601f1061032f57610100808354040283529160200191610358565b820191905f5260205f20905b81548152906001019060200180831161033b57829003601f168201915b5050505050905090565b5f5f61036c610671565b9050610379818585610678565b600191505092915050565b5f600254905090565b5f5f610397610671565b90506103a485828561068a565b6103af85858561071d565b60019150509392505050565b5f6012905090565b60065481565b5f5f5f8373ffffffffffffffffffffffffffffffffffffffff1673ffffffffffffffffffffffffffffffffffffffff1681526020019081526020015f20549050919050565b61041661080d565b61041f5f610894565b565b5f60055f9054906101000a900473ffffffffffffffffffffffffffffffffffffffff16905090565b61045161080d565b5f820361048a576040517f612e561300000000000000000000000000000000000000000000000000000000815260040160405180910390fd5b6104b5816104966103bb565b60ff16600a6104a59190611284565b846104b091906112ce565b610957565b5050565b6060600480546104c8906110f8565b80601f01602080910402602001604051908101604052809291908181526020018280546104f4906110f8565b801561053f5780601f106105165761010080835404028352916020019161053f565b820191905f5260205f20905b81548152906001019060200180831161052257829003601f168201915b5050505050905090565b5f5f610553610671565b905061056081858561071d565b600191505092915050565b5f60015f8473ffffffffffffffffffffffffffffffffffffffff1673ffffffffffffffffffffffffffffffffffffffff1681526020019081526020015f205f8373ffffffffffffffffffffffffffffffffffffffff1673ffffffffffffffffffffffffffffffffffffffff1681526020019081526020015f2054905092915050565b6105f561080d565b5f73ffffffffffffffffffffffffffffffffffffffff168173ffffffffffffffffffffffffffffffffffffffff1603610665575f6040517f1e4fbdf700000000000000000000000000000000000000000000000000000000815260040161065c9190611036565b60405180910390fd5b61066e81610894565b50565b5f33905090565b61068583838360016109d6565b505050565b5f610695848461056b565b90507fffffffffffffffffffffffffffffffffffffffffffffffffffffffffffffffff8110156107175781811015610708578281836040517ffb8f41b20000000000000000000000000000000000000000000000000000000081526004016106ff9392919061130f565b60405180910390fd5b61071684848484035f6109d6565b5b50505050565b5f73ffffffffffffffffffffffffffffffffffffffff168373ffffffffffffffffffffffffffffffffffffffff160361078d575f6040517f96c6fd1e0000000000000000000000000000000000000000000000000000000081526004016107849190611036565b60405180910390fd5b5f73ffffffffffffffffffffffffffffffffffffffff168273ffffffffffffffffffffffffffffffffffffffff16036107fd575f6040517fec442f050000000000000000000000000000000000000000000000000000000081526004016107f49190611036565b60405180910390fd5b610808838383610ba5565b505050565b610815610671565b73ffffffffffffffffffffffffffffffffffffffff16610833610421565b73ffffffffffffffffffffffffffffffffffffffff161461089257610856610671565b6040517f118cdaa70000000000000000000000000000000000000000000000000000000081526004016108899190611036565b60405180910390fd5b565b5f60055f9054906101000a900473ffffffffffffffffffffffffffffffffffffffff1690508160055f6101000a81548173ffffffffffffffffffffffffffffffffffffffff021916908373ffffffffffffffffffffffffffffffffffffffff1602179055508173ffffffffffffffffffffffffffffffffffffffff168173ffffffffffffffffffffffffffffffffffffffff167f8be0079c531659141344cd1fd0a4f28419497f9722a3daafe3b4186f6b6457e060405160405180910390a35050565b5f73ffffffffffffffffffffffffffffffffffffffff168273ffffffffffffffffffffffffffffffffffffffff16036109c7575f6040517fec442f050000000000000000000000000000000000000000000000000000000081526004016109be9190611036565b60405180910390fd5b6109d25f8383610ba5565b5050565b5f73ffffffffffffffffffffffffffffffffffffffff168473ffffffffffffffffffffffffffffffffffffffff1603610a46575f6040517fe602df05000000000000000000000000000000000000000000000000000000008152600401610a3d9190611036565b60405180910390fd5b5f73ffffffffffffffffffffffffffffffffffffffff168373ffffffffffffffffffffffffffffffffffffffff1603610ab6575f6040517f94280d62000000000000000000000000000000000000000000000000000000008152600401610aad9190611036565b60405180910390fd5b8160015f8673ffffffffffffffffffffffffffffffffffffffff1673ffffffffffffffffffffffffffffffffffffffff1681526020019081526020015f205f8573ffffffffffffffffffffffffffffffffffffffff1673ffffffffffffffffffffffffffffffffffffffff1681526020019081526020015f20819055508015610b9f578273ffffffffffffffffffffffffffffffffffffffff168473ffffffffffffffffffffffffffffffffffffffff167f8c5be1e5ebec7d5bd14f71427d1e84f3dd0314c0f7b2291e5b200ac8c7c3b92584604051610b969190610f5f565b60405180910390a35b50505050565b5f73ffffffffffffffffffffffffffffffffffffffff168373ffffffffffffffffffffffffffffffffffffffff1603610bf5578060025f828254610be99190611344565b92505081905550610cc3565b5f5f5f8573ffffffffffffffffffffffffffffffffffffffff1673ffffffffffffffffffffffffffffffffffffffff1681526020019081526020015f2054905081811015610c7e578381836040517fe450d38c000000000000000000000000000000000000000000000000000000008152600401610c759392919061130f565b60405180910390fd5b8181035f5f8673ffffffffffffffffffffffffffffffffffffffff1673ffffffffffffffffffffffffffffffffffffffff1681526020019081526020015f2081905550505b5f73ffffffffffffffffffffffffffffffffffffffff168273ffffffffffffffffffffffffffffffffffffffff1603610d0a578060025f8282540392505081905550610d54565b805f5f8473ffffffffffffffffffffffffffffffffffffffff1673ffffffffffffffffffffffffffffffffffffffff1681526020019081526020015f205f82825401925050819055505b8173ffffffffffffffffffffffffffffffffffffffff168373ffffffffffffffffffffffffffffffffffffffff167fddf252ad1be2c89b69c2b068fc378daa952ba7f163c4a11628f55a4df523b3ef83604051610db19190610f5f565b60405180910390a3505050565b5f81519050919050565b5f82825260208201905092915050565b8281835e5f83830152505050565b5f601f19601f8301169050919050565b5f610e0082610dbe565b610e0a8185610dc8565b9350610e1a818560208601610dd8565b610e2381610de6565b840191505092915050565b5f6020820190508181035f830152610e468184610df6565b905092915050565b5f5ffd5b5f73ffffffffffffffffffffffffffffffffffffffff82169050919050565b5f610e7b82610e52565b9050919050565b610e8b81610e71565b8114610e95575f5ffd5b50565b5f81359050610ea681610e82565b92915050565b5f819050919050565b610ebe81610eac565b8114610ec8575f5ffd5b50565b5f81359050610ed981610eb5565b92915050565b5f5f60408385031215610ef557610ef4610e4e565b5b5f610f0285828601610e98565b9250506020610f1385828601610ecb565b9150509250929050565b5f8115159050919050565b610f3181610f1d565b82525050565b5f602082019050610f4a5f830184610f28565b92915050565b610f5981610eac565b82525050565b5f602082019050610f725f830184610f50565b92915050565b5f5f5f60608486031215610f8f57610f8e610e4e565b5b5f610f9c86828701610e98565b9350506020610fad86828701610e98565b9250506040610fbe86828701610ecb565b9150509250925092565b5f60ff82169050919050565b610fdd81610fc8565b82525050565b5f602082019050610ff65f830184610fd4565b92915050565b5f6020828403121561101157611010610e4e565b5b5f61101e84828501610e98565b91505092915050565b61103081610e71565b82525050565b5f6020820190506110495f830184611027565b92915050565b5f5f6040838503121561106557611064610e4e565b5b5f61107285828601610ecb565b925050602061108385828601610e98565b9150509250929050565b5f5f604083850312156110a3576110a2610e4e565b5b5f6110b085828601610e98565b92505060206110c185828601610e98565b9150509250929050565b7f4e487b71000000000000000000000000000000000000000000000000000000005f52602260045260245ffd5b5f600282049050600182168061110f57607f821691505b602082108103611122576111216110cb565b5b50919050565b7f4e487b71000000000000000000000000000000000000000000000000000000005f52601160045260245ffd5b5f8160011c9050919050565b5f5f8291508390505b60018511156111aa5780860481111561118657611185611128565b5b60018516156111955780820291505b80810290506111a385611155565b945061116a565b94509492505050565b5f826111c2576001905061127d565b816111cf575f905061127d565b81600181146111e557600281146111ef5761121e565b600191505061127d565b60ff84111561120157611200611128565b5b8360020a91508482111561121857611217611128565b5b5061127d565b5060208310610133831016604e8410600b84101617156112535782820a90508381111561124e5761124d611128565b5b61127d565b6112608484846001611161565b9250905081840481111561127757611276611128565b5b81810290505b9392505050565b5f61128e82610eac565b915061129983610eac565b92506112c67fffffffffffffffffffffffffffffffffffffffffffffffffffffffffffffffff84846111b3565b905092915050565b5f6112d882610eac565b91506112e383610eac565b92508282026112f181610eac565b9150828204841483151761130857611307611128565b5b5092915050565b5f6060820190506113225f830186611027565b61132f6020830185610f50565b61133c6040830184610f50565b949350505050565b5f61134e82610eac565b915061135983610eac565b925082820190508082111561137157611370611128565b5b9291505056fea2646970667358221220ff61db4889ba2b993bf2ca855cd29749b4be1e460f08ef0b1c342e621d4d41b564736f6c63430008210033","linkReferences":{}},"methodIdentifiers":{"_totalSupply()":"3eaaf86b","allowance(address,address)":"dd62ed3e","approve(address,uint256)":"095ea7b3","balanceOf(address)":"70a08231","decimals()":"313ce567","mint(uint256,address)":"94bf804d","name()":"06fdde03","owner()":"8da5cb5b","renounceOwnership()":"715018a6","symbol()":"95d89b41","totalSupply()":"18160ddd","transfer(address,uint256)":"a9059cbb","transferFrom(address,address,uint256)":"23b872dd","transferOwnership(address)":"f2fde38b"},"id":9}